:020000040800F2
:1000000078C00520D9020008A92E0008A12E0008FA
:10001000A52E000899050008F14000080000000026
:10002000000000000000000000000000D1330008C4
:100030004308000800000000E52E0008893400088D
:10004000F3020008F3020008F3020008F3020008BC
:10005000F3020008F3020008F3020008F3020008AC
:10006000F3020008F3020008F3020008F30200089C
:10007000F3020008F3020008F3020008F30200088C
:10008000F3020008F3020008F3020008F30200087C
:10009000F3020008F3020008F3020008F30200086C
:1000A000F3020008F3020008F3020008F30200085C
:1000B000F3020008F3020008F3020008F30200084C
:1000C000F3020008F3020008F3020008F30200083C
:1000D000F3020008A1400008F3020008F302000840
:1000E000F3020008F3020008F3020008F30200081C
:1000F000F3020008F3020008F3020008F30200080C
:10010000F3020008F3020008F3020008F3020008FB
:10011000F3020008F3020008F3020008F9340008B3
:10012000F3020008F3020008F3020008F3020008DB
:10013000F3020008F3020008F3020008F3020008CB
:10014000F3020008F3020008F3020008F3020008BB
:10015000F3020008F3020008F3020008F3020008AB
:10016000F3020008F3020008F3020008F30200089B
:10017000F3020008F3020008F30200080000000088
:10018000F3020008F3020008F3020008F30200087B
:10019000F3020008F3020008F3020008F30200086B
:1001A000F3020008F3020008F3020008F30200085B
:1001B000F3020008F3020008F3020008F30200084B
:1001C000F3020008F302000800000000F302000838
:1001D000F3020008F3020008F3020008F30200082B
:1001E000F3020008F3020008F3020008F30200081B
:1001F000F3020008F302000800F002F800F05CF8D7
:100200000AA090E8000C82448344AAF10107DA4571
:1002100001D100F051F8AFF2090EBAE80F0013F067
:10022000010F18BFFB1A43F001031847A442000056
:10023000C44200000A444FF0000C10F8013B13F0D8
:10024000070408BF10F8014B1D1108BF10F8015B2F
:10025000641E05D010F8016B641E01F8016BF9D122
:1002600013F0080F1EBF10F8014BAD1C0C1B09D179
:100270006D1E58BF01F801CBFAD505E014F8016BEB
:1002800001F8016B6D1EF9D59142D6D3704700007D
:100290000023002400250026103A28BF78C1FBD88F
:1002A000520728BF30C148BF0B6070471FB504F02C
:1002B000F9F81FBD10B510BD00F033F81146FFF777
:1002C000F5FF04F063F800F051F803B4FFF7F2FF14
:1002D00003BC04F02BF80000094880470948004798
:1002E000FEE7FEE7FEE7FEE7FEE7FEE7FEE7FEE7E6
:1002F000FEE7FEE704480549054A064B7047000043
:1003000095340008F901000878BA052078C0052066
:1003100078BC052078BC052070477047704770474F
:100320007047754600F02CF8AE4605006946534606
:1003300020F00700854618B020B5FFF7DBFFBDE8C9
:1003400020404FF000064FF000074FF000084FF03C
:10035000000B21F00701AC46ACE8C009ACE8C009CD
:10036000ACE8C009ACE8C0098D46704710B504463A
:10037000AFF300802046BDE81040FFF7A6BF0000A5
:100380000048704718BA052070B50546AC6B206C64
:1003900000F0500050BB206C40F4007020642068D6
:1003A000806800F04050E8B9A069D8B92068C06AF8
:1003B00000F4700020B12068806800F4806088B983
:1003C0002068406820F0200021684860206C20F4FC
:1003D00080702064206C00F4805018B9206C40F0CC
:1003E00001002064204600F085FC03E0A06BC16C96
:1003F0002846884770BD70B50546AC6B4020206428
:10040000606C40F004006064204600F075FC70BD34
:1004100070B50446A56B284600F06DFC70BD000069
:100420005A49096821F44031594AC2F80413114667
:10043000D1F8041342681143544A116001684968B5
:1004400021F480710268516001684A68016942EADA
:100450000121026851600168496821F04071026819
:1004600051600168496882681143026851600168FF
:10047000896821F400610268916001688968C26836
:10048000114302689160434A816A914218D0016821
:10049000896821F070610268916001688968826AE8
:1004A0001143026891600168896821F04051026837
:1004B000916001688968C26A1143026891600BE02B
:1004C0000168896821F0706102689160016889683B
:1004D00021F04051026891600168896821F00201B1
:1004E0000268916001688A68816942EA4101026894
:1004F0009160016AD1B10168496841F40061026804
:1005000051600168496821F46041026851600168E6
:100510004A68416A491E4FF4604393FAA3F3B3FA61
:1005200083F399400A4301684A6005E0016849681D
:1005300021F40061026851600168C96A21F4700108
:100540000268D1620168CA6A818B491E42EA015180
:100550000268D1620168896821F4007102689160C3
:1005600001688A68016B42EA412102689160016872
:10057000896821F480610268916001688A68416934
:1005800042EA812102689160704700000423014023
:10059000002001400100000F00BFFEE710B500BFC2
:1005A00000BF00BF00BF00BFBFF34F8F00BF00BF41
:1005B00000BF00BF00BF00BFBFF36F8F00BF00BF11
:1005C00000BF0020114908601148006840F4003065
:1005D0000F49086000BF00BF00BFBFF34F8F00BFCF
:1005E00000BF00BF00BF00BF00BFBFF36F8F00BFE1
:1005F00000BF00BF00BF02F06BFE04484C30006833
:1006000040F0040001494C31086010BD50EF00E09B
:1006100014ED00E010B509480949086040F2E730E0
:1006200048600021064881606B21C16000210161A2
:1006300001F0B0FD024801F0E7FD10BD00140040DC
:100640007C120520002067E0354931F810100AB20D
:1006500000EB8003334921F8132000EB8001314A7D
:10066000323A32F9111000EB80022E4B323B03EB91
:100670004202B2F90220114400EB800203EB420275
:10068000B2F90420114400EB800203EB4202B2F9FC
:100690000620114489100AB200EB8003214901EBC6
:1006A00043010A8100EB80011E4A323A02EB41010C
:1006B0008A8800EB80031B4901EB4301CA8000EBF1
:1006C0008001184A323A02EB41014A8800EB80036C
:1006D000144901EB43018A8000EB8001114A323A50
:1006E00032F8112000EB80030E4901EB43014A80F0
:1006F00000EB80020B4901EB4201B1F90810B1F5A2
:100700007A6F07DD4FF47A6200EB8003054901EB55
:1007100043010A81411CC8B2052895DB70470000DF
:10072000740F0520DAB9052001460878103818231F
:10073000B0FBF3F20848805CC865032A05D9086855
:100740006FF30900001D886503E008686FF3090076
:100750008865886D70470000C64400080146002087
:100760008A6A8B6903BB32B1012A0CD0022A10D0ED
:10077000032A17D115E0CB6A03F08073B3F1807FB1
:1007800000D101200FE0CB6AB3F1C07F00D101207E
:1007900009E0CB6A03F08073B3F1807F00D10120C0
:1007A00001E000E000BF35E08B69B3F5005F1BD1CD
:1007B00032B1012A06D0022A0CD0032A12D10BE052
:1007C000012010E0CB6A03F08073B3F1807F00D189
:1007D000012008E0012006E0CB6AB3F1C07F00D120
:1007E000012000E000BF15E032B1012A05D0022A45
:1007F00004D0032A0CD103E000BF00BF012008E0B1
:10080000CB6A03F08073B3F1807F00D1012000E058
:1008100000BF00BF704730B50468246824F480240A
:1008200005682C60046863608468402C04D1046807
:10083000A2600468E16003E00468A1600468E2600B
:1008400030BD704710B59AB000BF3E48006840F018
:1008500001003C4908600846006800F00100019072
:1008600000BF00BF00BF081F006840F00100091F63
:1008700008600846006800F00100019000BF00BF5A
:1008800000BF0846006840F00200086008460068A3
:1008900000F00200019000BF00BF00BF08460068E2
:1008A00040F0040008600846006800F00400019071
:1008B00000BF00BF00BF0846006840F008000860A5
:1008C0000846006800F00800019000BF00BF00BFAC
:1008D000081D006840F00200091D08600846006815
:1008E00000F00200019000BF00BF00200C9000212A
:1008F0000D914FF406410E9100210F9103200290BB
:10090000002003900120049000200590069007909D
:1009100001200890002009900A9000240DE00A4868
:1009200050F824000B9002A90BA801F07DFC3C219B
:100930000BA801F0D6FC601CC4B2062CEFDB1AB089
:1009400010BD0000443802408800022010B586B077
:1009500000BF3448006840F0010032490860084692
:10096000006800F00100009000BF00BF00BF084613
:10097000006840F0020008600846006800F00200CD
:10098000009000BF00BF00BF0846006840F00400B0
:1009900008600846006800F00400009000BF00BF37
:1009A00000BF0846006840F008000860084600687C
:1009B00000F00800009000BF00BF00BF08460068BC
:1009C00040F0100008600846006800F01000009039
:1009D00000BF00BF0220029000200390032004907B
:1009E00000241BE0104830F8240001900F4850F814
:1009F000240005900E4951F8340001A900F0D6FBFF
:100A0000094800EB840040880190094901EBC401CA
:100A1000486801A900F0CAFB601CC4B2062CE1DBE7
:100A200006B010BD30380240D0000220E80002209D
:100A3000A0000220002044E00022234941F82020A9
:100A4000183141F82020B0EE080A603901EB80012E
:100A500081ED000AB0EE000A1B49303901EB80013C
:100A600081ED000AB7EE000A1749183901EB800141
:100A700081ED000A1449603941F82020134941F8FA
:100A80002020183141F820209FED110A603901EB38
:100A9000800181ED000A9FED0F0A0C49303901EB0E
:100AA000800181ED000A9FED0B0A0849183901EB1E
:100AB000800181ED000A0549603941F82020411C80
:100AC000C8B20628B8DB7047CCB7052074B805203B
:100AD0000AD7A33D0000000000B587B000BF15484D
:100AE000006840F02000134908600846006800F0E4
:100AF0002000019000BF00BF0F4800880E494988C0
:100B000008430D49898808430B49C98808430A49A5
:100B10000989084308494989084302900120039044
:100B200004900320059002A9044800F03FFB07B0A1
:100B300000BD0000303802401000022000140240C6
:100B400018B502460020009000BF92F83C00012832
:100B500001D1022018BD012082F83C0000BF0868C6
:100B6000092822D91068C0680B780A3B03EB4304BC
:100B70000723A34098431368D860594B08689842EC
:100B800007D11068C0680B7A40EA03601368D86028
:100B90001FE00B780A3B03EB430388689840136817
:100BA000DB6818431368D86013E0106800690B789D
:100BB00003EB43040723A3409843136818610B78A1
:100BC00003EB43038868984013681B691843136854
:100BD00018614868072817D21068406B0B795B1EB4
:100BE00003EB83041F23A3409843136858630888CA
:100BF00080B20B795B1E03EB8303984013685B6B39
:100C000018431368586331E048680D2817D21068FC
:100C1000006B0B79DB1F03EB83041F23A340984376
:100C200013681863088880B20B79DB1F03EB83031A
:100C3000984013681B6B18431368186316E010681C
:100C4000C06A0B790D3B03EB83041F23A340984339
:100C50001368D862088880B20B790D3B03EB8303DD
:100C600098401368DB6A18431368D8621D4B1068FC
:100C7000984208D10868122805D11B48006840F442
:100C80008000C3F80403174B1068984220D1144B1E
:100C90000868984202D00868112819D112480068E3
:100CA00040F40000104B18600D4B086898420FD1BB
:100CB0000E4800680E4BB0FBF3F000EB80004000E4
:100CC000009002E00098401E009000980028F9D1A2
:100CD00000BF002082F83C0000BF00BF3AE70000E0
:100CE00012000010002001400423014000000220F7
:100CF00040420F00704770477047000070B50446CF
:100D000000250CB9012070BD1549A06A884200D0A9
:100D100000BF206C30B90020606484F83C0020469D
:100D200000F020F8206C00F0100088B9206C20F44E
:100D3000885040F0020020642046FFF771FB00203D
:100D40006064206C20F0020040F00100206400E0AC
:100D5000012500BF002084F83C0000BF2846D2E7F0
:100D60000100000F10B586B0044600BF344800688B
:100D700040F48070324908600846006800F48070D2
:100D8000009000BF00BF00BF0846006840F48060CC
:100D900008600846006800F48060009000BF00BF53
:100DA00000BF27481438006840F001002449143976
:100DB00008600846006800F00100009000BF00BF16
:100DC00000BF0846006840F004000860084600685C
:100DD00000F00400009000BF00BF00BF084600689C
:100DE00040F0200008600846006800F020000090F5
:100DF00000BF00BF00BF0846006840F480000860E4
:100E00000846006800F48000009000BF00BF0C207E
:100E10000190032002900020039001A9094800F0EE
:100E2000C5F91F20019001A9074800F0BFF94FF450
:100E30008760019001A9054800F0B8F906B010BD1F
:100E40004438024000000240000802400014024002
:100E5000F8B504460D4616460020009000BF94F8F1
:100E60003C00012801D10220F8BD012084F83C009B
:100E700000BF2068806800F00100A0B92068806889
:100E800040F00100216888603C4800683C49B0FBA4
:100E9000F1F000EB4000009002E00098401E00904E
:100EA00000980028F9D12068806800F0010000282F
:100EB00062D0206C40F20161884340F4807020646D
:100EC0002068406800F4806028B1206C20F4005055
:100ED00040F480502064206C00F4805020B1606C9D
:100EE00020F00600606401E00020606400BF002084
:100EF00084F83C0000BF2348A16BC8632248A16B63
:100F000008642248A16BC8646FF022002168086061
:100F10002068406840F080602168486020688068F0
:100F200040F4807021688860226802F14C013346E9
:100F30002A46A06B00F0EAF81548006800F01F0090
:100F400058B92068806800F0405028B9206880684F
:100F500040F08040216888600EE00E492068884299
:100F60000AD12068806800F0405028B92068806865
:100F700040F0804021688860002075E70000022072
:100F800040420F008903000811040008F70300081D
:100F90000423014000200140014691F83500022859
:100FA00003D08020486501207047052081F8350076
:100FB0000868006820F001000A6810600020F3E76C
:100FC00070B504460CB9012070BD94F835000228B4
:100FD00000D1F9E72068006820F00100216808606E
:100FE00000202168086021684860216888602168C5
:100FF000C860216808612120216848612046FFF708
:1010000093FB054694F85C103F208840A8600020C0
:10101000606584F8350000BF84F8340000BF00BF6D
:10102000D2E700002DE9F0410446002500F0CAF99E
:10103000074614B90120BDE8F081606A00B100BF25
:1010400000BF002084F8340000BF022084F835007F
:101050002068006820F00100216808600AE000F0C4
:10106000B1F9C01B052805D920206065032084F84C
:101070003500E0E72068006800F001000028EED1AC
:101080002068056820480540D4E901010843E1686B
:1010900008432169084361690843A1690843E1697C
:1010A0000843216A08430543606A042803D1D4E950
:1010B0000B0108430543206805602068456925F059
:1010C0000705606A0543606A04280BD1A06A0543DE
:1010D0002046FFF743FB28B140206065012084F8DB
:1010E0003500A8E7206845612046FFF71DFB06464E
:1010F00094F85C103F208840B060002060650120BB
:1011000084F83500002096E73F8010E02DE9F04795
:1011100004460D4616461F464FF00008D4F8589076
:1011200000BF94F83400012802D10220BDE8F08706
:10113000012084F8340000BF94F8350001282BD139
:10114000022084F83500002060653B46324629467F
:101150002046FFF760FB94F85C103F208840C9F8F8
:1011600008002068006840F01600216808602068C8
:10117000406940F0800021684861206C28B12068F7
:10118000006840F00800216808602068006840F0AE
:1011900001002168086006E000BF002084F83400E8
:1011A00000BF4FF002084046C0E70000F8B5024615
:1011B0000B46002100250024002000BFE4E00126AA
:1011C00006FA01F51E6806EA0504AC4271D15E68B4
:1011D000022E02D05E68122E13D1CF0802F1200633
:1011E00056F827004E07F70E0F26BE40B0434F07B4
:1011F000FF0E1E69BE403043CF0802F1200646F8BC
:10120000270010684F000326BE40B0431E7906F049
:1012100003064F00BE40304310605E68012E08D0C8
:101220005E68022E05D05E68112E02D05E68122E16
:1012300013D190684F000326BE40B0434F00DE68D4
:10124000BE4030439060506801268E40B0431E7906
:10125000C6F300168E4030435060D0684F0003261E
:10126000BE40B0434F009E68BE403043D0605E68D1
:1012700006F08056B6F1805FA8D100BF444E3668B4
:1012800046F48046424F3E603E46366806F480464D
:10129000009600BF00BF3F4E8F0856F827008E070C
:1012A000370F0F26BE40B0433B4EB24202D100265C
:1012B0002EE068E0394EB24201D1012628E0384ED6
:1012C000B24201D1022623E0364EB24201D10326BA
:1012D0001EE0354EB24201D1042619E0334EB2422F
:1012E00001D1052614E0324EB24201D106260FE0AC
:1012F000304EB24201D107260AE02F4EB24201D150
:10130000082605E02D4EB24201D1092600E00A264A
:101310008F073F0FBE4030431E4E8F0846F8270010
:10132000274E3068A0435E6806F48036B6F5803FED
:1013300000D12043224E3060361D3068A0435E68E5
:1013400006F40036B6F5003F00D120431C4E361D92
:101350003060361D3068A0435E6806F48016B6F52E
:10136000801F00D12043164E08363060361D30688D
:10137000A0435E6806F40016B6F5001F00D12043B6
:101380000F4E0C363060491C1029FFF418AFF8BD21
:101390004438024008380140000002400004024086
:1013A00000080240000C02400010024000140240FD
:1013B00000180240001C02400020024000240240AD
:1013C000003C01400148006870470000080002200E
:1013D00002480068401C014908607047080002206C
:1013E00010B50848006840F4007006490860052000
:1013F00000F06AF80F2000F007F800F019F800205C
:1014000010BD0000003C024070B50446074800686B
:101410004FF47A71B0FBF1F5284600F09BFE0022F4
:101420002146501E00F012F8002070BD000002207E
:10143000704700BF00F01F02012191404209920055
:1014400002F1E022C2F8001100BF70472DE9F05F01
:1014500080460D461646002701F028FD074639460E
:101460002A46334601F00700C0F1070ABAF1040F1B
:1014700002D94FF0040A01E0C0F1070AD14600F199
:10148000040ABAF1070F02D24FF0000A01E0A0F1FE
:10149000030AD4464FF0010A0AFA09FAAAF1010A2E
:1014A0000AEA020A0AFA0CFA4FF0010B0BFA0CFBDB
:1014B000ABF1010B0BEA030B4AEA0B042146404651
:1014C00001F0FCFCBDE8F09F00BF00F00702064BF6
:1014D00019684FF6FF031940044B0B4343EA0221FE
:1014E000014B196000BF70470CED00E00000FA05E9
:1014F00038B5002400BF2048006840F080501E49E5
:1015000008600846006800F08050009000BF00BFEF
:101510001A48006840F4803018490860FFF752FF0D
:10152000044607E0FFF74EFF001BB0F57A7F01D9B4
:10153000032038BD1148406800F48030B0F5803F8A
:10154000F0D10E48006840F400300C490860FFF705
:1015500039FF044607E0FFF735FF001BB0F57A7F3F
:1015600001D90320E5E70548406800F40030B0F5F4
:10157000003FF0D10020DCE740380240007000401E
:101580002DE9F84304460D4616460127FFF71AFFDA
:101590008046A86900B100BFE86900B100BF286AB1
:1015A00000B100BF00BF94F83800012802D102202A
:1015B000BDE8F883012084F8380000BF94F83900B2
:1015C000012828D10020E063022084F83900434636
:1015D000002220212046009601F054FE0746DFB984
:1015E00000222946204601F0E5FC686A78B94346A6
:1015F000012202212046009601F044FE07465FB911
:1016000002202168C860012084F8390004E001202C
:1016100084F8390000E0022700BF002084F8380079
:1016200000BF3846C4E70000F8B504460125FFF7BF
:10163000C9FE06460CB90120F8BD206A402800D03A
:1016400000BF00BF94F83800012801D10220F3E761
:10165000012084F8380000BF94F8390050B9002008
:1016600084F83800204600F04BF841F288312046DB
:1016700000F015F92068006820F4F851A068401EB9
:1016800041EA002021680860206C334600222021B6
:101690000090204601F0F6FD054635BB2179E06853
:1016A00040EA0160E1690843216A0843216809684A
:1016B000114A1140084321680860208A616941EAA3
:1016C0000040A1690843216849680C4A1140084359
:1016D000216848602068006840F0010021680860C7
:1016E0000020E063012084F8390000BF002084F866
:1016F000380000BF28469FE72FFFFF00FEF8E0FFFD
:1017000010B586B0044600BF2948006840F00200CA
:10171000274908600846006800F00200009000BFFA
:1017200000BF00BF22480838006840F0020020498E
:10173000083908600846006800F00200009000BF09
:1017400000BF00BF0846006840F02000086008465F
:10175000006800F02000009000BF00BF4020019012
:101760000220029001200390032004900A2005909B
:1017700001A91048FFF71AFD4FF4407001900020B6
:1017800003900320049001A90B48FFF70FFD0420EC
:1017900001900920059001A90648FFF707FDC02028
:1017A000019001A90448FFF701FD06B010BD00003B
:1017B0003838024000040240001402402DE9F84F7E
:1017C00004460E4617460025FFF7FCFD80462068BC
:1017D000D0F81890206800F1200A00BF94F8380073
:1017E000012802D10220BDE8F88F012084F83800DA
:1017F00000BF94F83900012849D10020E063002E91
:101800003FD0222084F8390020680069401C60869F
:1018100020680069401C2086E6622068406920F04C
:10182000406040F08060216848612068C0F81890EE
:1018300012E04346012206212046009701F022FDD6
:10184000054605B10BE09AF80010E26A501CE06210
:101850001170608E401E6086608E0028E9DC00BF3B
:101860005DB94346012202212046009701F00AFD9E
:10187000054615B902202168C860012084F83900A6
:1018800006E0E06B40F00800E063012500E002257F
:1018900000BF002084F8380000BF2846A3E7016499
:1018A00070472DE9F84304460E4617460025FFF71A
:1018B00089FD8046206800F1200900BF94F83800B7
:1018C000012802D10220BDE8F883012084F8380005
:1018D00000BF94F83900012844D10020E063002EB5
:1018E0003AD0122084F8390020680069401C6085D5
:1018F00020680069401C208566622068406920F0ED
:1019000040602168486112E04346012204212046DC
:10191000009701F0B7FC054605B10BE0616A481C71
:101920006062087889F80000608D401E6085608DD7
:101930000028E9DC00BF5DB94346012202212046B0
:10194000009701F09FFC054615B902202168C86088
:10195000012084F8390006E0E06B40F00800E06305
:10196000012500E0022500BF002084F8380000BFF8
:101970002846A8E770B504460D460026664800686C
:1019800000F00F00A8420ED26348006820F00F005C
:101990002843614908600846006800F00F00A8422B
:1019A00001D0012070BD207800F00200022807D18C
:1019B0005A48006820F0F000A168084357490860C1
:1019C000207800F00100002860D06068012807D16D
:1019D000524808380068C0F34040A0B90120E1E750
:1019E0006068022807D14D4808380068C0F340609D
:1019F00048B90120D6E7494808380068C0F34000DC
:101A000008B90120CEE74548006820F0030061686E
:101A1000084342490860FFF7D5FC06466068012884
:101A200010D108E0FFF7CEFC801B41F288318842DC
:101A300001D90320B6E73948006800F00C000428FB
:101A4000F0D123E06068022810D108E0FFF7BAFC6B
:101A5000801B41F28831884201D90320A2E72F4838
:101A6000006800F00C000828F0D10FE008E0FFF754
:101A7000A9FC801B41F28831884201D9032091E7FB
:101A80002648006800F00C000028F0D122480068C9
:101A900000F00F00A8420ED91F48006820F00F0088
:101AA00028431D4908600846006800F00F00A8425E
:101AB00001D0012076E7207800F00400042807D147
:101AC0001648006820F4E050E168084313490860B4
:101AD000207800F00800082808D11048006820F499
:101AE0006040216940EAC1000C49086000F04EF8EE
:101AF0000A49096801F0F001F02292FAA2F2B2FA62
:101B000082F2D140064A515CC840064908600F2065
:101B1000FFF77AFC002045E7003C0240083802400D
:101B2000AE44000800000220014800687047000031
:101B30000000022000B5FFF7F7FF0749096801F42C
:101B4000E0514FF4E05292FAA2F2B2FA82F2D1409E
:101B5000024A515CC84000BD08380240BE4400083B
:101B600000B5FFF7E1FF0749096801F460414FF450
:101B7000604292FAA2F2B2FA82F2D140024A515C79
:101B8000C84000BD08380240BE44000870B50021BE
:101B9000002200230020274C246804F00C0424B108
:101BA000042C04D0082C41D103E0234840E0234812
:101BB0003EE0204C241F246804F03F011D4C241FEC
:101BC000246804F4800484B11C4CB4FBF1F5194C76
:101BD000241F246847F6C076344096FAA6F6B6FA73
:101BE00086F6F44005FB04F20FE0134CB4FBF1F56C
:101BF000104C241F246847F6C076344096FAA6F6A7
:101C0000B6FA86F6F44005FB04F20A4C241F246859
:101C100004F440344FF4403595FAA5F5B5FA85F54E
:101C2000EC40641C6300B2FBF3F001E0024800BF2B
:101C300000BF70BD083802400024F40040787D01E8
:101C400038B504460025207800F00100002871D046
:101C5000FE48006800F00C0004280DD0FB48006826
:101C600000F00C00082813D1F848001F006800F4A9
:101C70008000B0F5800F0BD1F44808380068C0F33D
:101C80004040002869D06068002866D1012038BD36
:101C900000BF6068B0F5803F08D1EC4808380068A4
:101CA00040F48030E949083908602EE0606868B97E
:101CB000E6480838006820F48030E44908390860B4
:101CC0000846006820F4802008601EE06068B0F5D7
:101CD000A02F0DD1DD480838006840F48020DB4992
:101CE000083908600846006840F4803008600CE05D
:101CF000D6480838006820F48030D4490839086094
:101D00000846006820F48020086000BF606890B139
:101D1000FFF758FB054606E0FFF754FB401B64281D
:101D200001D90320B3E7C94808380068C0F3404030
:101D30000028F1D011E0FFF745FB054606E0FFF76C
:101D400041FB401B642801D90320A0E7BF480838A5
:101D50000068C0F340400028F1D1207800F0020074
:101D6000022873D1B948006800F00C0058B1B74898
:101D7000006800F00C00082821D1B448001F00685A
:101D800000F48000D8B9B14808380068C0F34000BA
:101D900020B1E068012801D0012078E7AB4808387D
:101DA000006820F0F800F82292FAA2F2B2FA82F269
:101DB000216991400843A5490839086046E0E06878
:101DC00050B3A2480838006840F001009F49083924
:101DD0000860FFF7F7FA054606E0FFF7F3FA401B45
:101DE000022801D9032052E7984808380068C0F358
:101DF00040000028F1D095480838006820F0F8002D
:101E0000F82292FAA2F2B2FA82F2216991400843D2
:101E10008E490839086019E08C480838006820F0BD
:101E200001008A4908390860FFF7CCFA054606E048
:101E3000FFF7C8FA401B022801D9032027E783488F
:101E400008380068C0F340000028F1D1207800F085
:101E50000800082836D16069D0B17C486C30006831
:101E600040F0010079496C310860FFF7ABFA054694
:101E700006E0FFF7A7FA401B022801D9032006E776
:101E800072486C300068C0F340000028F1D019E0BF
:101E90006E486C30006820F001006C496C310860BD
:101EA000FFF790FA054606E0FFF78CFA401B022880
:101EB00001D90320EBE665486C300068C0F34000B0
:101EC0000028F1D1207800F00400042871D100BF6F
:101ED0005E483830006840F080505C493831086016
:101EE0000846006800F08050009000BF00BF5848CE
:101EF000006840F4807056490860FFF763FA0546B1
:101F000006E0FFF75FFA401B642801D90320BEE614
:101F10004F48006800F480700028F2D000BFA0682D
:101F2000012808D149486830006840F0010047495D
:101F3000683108602DE0A06868B9444868300068DE
:101F400020F001004149683108600846006820F02F
:101F5000040008601DE0A06805280DD13B486830EA
:101F6000006840F00400394968310860084600689C
:101F700040F0010008600CE034486830006820F050
:101F800001003249683108600846006820F004000A
:101F9000086000BFA068A8B1FFF714FA054609E081
:101FA000FFF710FA401B41F28831884202D9032022
:101FB0006DE61BE0254868300068C0F3400000284B
:101FC000EED013E0FFF7FEF9054608E0FFF7FAF957
:101FD000401B41F28831884201D9032057E61B4853
:101FE00068300068C0F340000028EFD1A06988B3D2
:101FF0001648006800F00C00082873D0A069022879
:1020000064D112480838006820F080700F49083900
:102010000860FFF7D7F9054606E0FFF7D3F9401B44
:10202000022801D9032032E6084808380068C0F3C6
:1020300040600028F1D1D4E90701084347F6C07297
:1020400092FAA2F2B2FA82F2616A04E0083802401F
:102050000070004058E0914008430122A16AC2EBA1
:1020600051014FF4403292FAA2F2B2FA82F2914058
:1020700008434FF0706292FAA2F2B2FA82F2E16A79
:10208000914008434FF0E04292FAA2F2B2FA82F293
:10209000216B914008431D490860081F006840F00B
:1020A0008070091F0860FFF78DF9054606E0FFF70D
:1020B00089F9401B022801D90320E8E51348001FD5
:1020C0000068C0F340600028F1D01DE00F48001FF9
:1020D000006820F080700D49091F0860FFF772F951
:1020E000054607E00EE0FFF76DF9401B022801D915
:1020F0000320CCE50548001F0068C0F340600028BD
:10210000F1D101E00120C2E50020C0E50438024021
:10211000042808D14FF0E021096941F004014FF093
:10212000E022116107E04FF0E021096921F004018C
:102130004FF0E02211617047054800681421B0FBA0
:10214000F1F201FB120008B101480068704700007D
:102150000800022070B504462546681EB0F1807F55
:1021600001D301200FE0681E4FF0E02148610F21EC
:102170004FF0FF3000F0A2FE00204FF0E021886118
:1021800007200861002070BD10B5FFF7D5FF10BD16
:102190007047704710B504460CB9012010BD94F883
:1021A000390010B9204600F00DF8022084F83900FB
:1021B000211D206801F0A8F9012084F839000020D1
:1021C000ECE7000038B504460D492068884215D177
:1021D00000BF0C48006840F020000A49086008462B
:1021E000006800F02000009000BF00BF0322012122
:1021F0003720FFF72BF93720FFF71BF938BD000018
:10220000001400404038024001460868C06840F0B1
:1022100001000A68D0600868006840F001000A68A0
:1022200010600020704700002DE9F04104460D4683
:102230004FF000080026002714B90120BDE8F08106
:1022400094F8390028B9002084F83800204600F0BE
:1022500047F8022084F83900206880681F49084048
:1022600021688860211D206801F04EF92068D0F8AF
:102270000880206886692068076A286840EA08089C
:1022800040F203308643A969A86840EA012006436A
:1022900040F60C4086434FF2F0008643E969E86857
:1022A00040EA0120064328690001296A40EA01301A
:1022B000064327F0220727F088076969686840EA23
:1022C000011007432068C0F80880206886612068F4
:1022D0000762012084F839000020AFE7F8FFFEFF15
:1022E000704730B504460D4615B1042D0CD105E0FC
:1022F00001220021206801F079F910E00122042177
:10230000206801F073F90AE001220021206801F041
:102310006DF901220421206801F068F900BF00BFB7
:102320002068006840F0010021680860002030BD8E
:10233000704710B5044620680069C0F34000D8B16A
:102340002068C068C0F34000B0B16FF0020021689F
:102350000861012020762068806900F0030018B130
:102360002046FFF7E5FF05E0204600F0BEF82046D6
:1023700000F091F90020207620680069C0F3800009
:10238000D8B12068C068C0F38000B0B16FF004001D
:1023900021680861022020762068806900F440707E
:1023A00018B12046FFF7C4FF05E0204600F09DF875
:1023B000204600F070F90020207620680069C0F304
:1023C000C000D8B12068C068C0F3C000B0B16FF0E1
:1023D000080021680861042020762068C06900F0A8
:1023E000030018B12046FFF7A3FF05E0204600F0E8
:1023F0007CF8204600F04FF9002020762068006924
:10240000C0F30010D8B12068C068C0F30010B0B1AC
:102410006FF0100021680861082020762068C069EC
:1024200000F4407018B12046FFF782FF05E0204617
:1024300000F05BF8204600F02EF90020207620689E
:10244000006900F0010058B12068C06800F0010088
:1024500030B16FF0010021680861204600F042F9B8
:1024600020680069C0F3C01058B12068C068C0F38C
:10247000C01030B16FF08000216808612046FFF77E
:1024800087FE20680069C0F3002058B12068C0684A
:10249000C0F3C01030B16FF08000216808612046A1
:1024A000FFF776FE20680069C0F3801058B12068FD
:1024B000C068C0F3801030B16FF04000216808613F
:1024C000204600F077F920680069C0F3401058B149
:1024D0002068C068C0F3401030B16FF02000216860
:1024E00008612046FFF755FE10BD704770B50446E1
:1024F0000D46164600BF94F83800012801D102208D
:1025000070BD012084F8380000BF022084F8390033
:102510000C2E51D005DC4EB1042E1ED0082E7AD1DF
:1025200033E0102E60D0142EF9D175E029462068D2
:1025300001F06AF82068806940F00800216888612D
:102540002068806920F00400216888612068806923
:10255000296908432168886177E02946206801F0ED
:102560008DF82068806940F40060216888612068E7
:10257000806920F480602168886120688069296909
:1025800040EA0120216888615FE02946206801F067
:10259000B3F82068C06940F008002168C86120686D
:1025A000C06920F004002168C8612068C0692969F9
:1025B00008432168C86148E02946206801F0DAF83C
:1025C0002068C06940F400602168C8612068C06963
:1025D00020F480602168C8612068C069296940EAE8
:1025E00001202168C86130E02946206801F0F4F834
:1025F0002068406D40F00800216848652068406D03
:1026000020F00400216848652068406D296908436E
:102610002168486519E017E02946206801F008F9AB
:102620002068406D40F40060216848652068406D76
:1026300020F48060216848652068406D296940EA7F
:1026400001202168486500E000BF00BF012084F838
:10265000390000BF002084F8380000BF00BF4FE7FA
:1026600010B504460CB9012010BD94F8390028B902
:10267000002084F83800204600F00CF8022084F88E
:102680003900211D206800F03FFF012084F8390047
:102690000020E9E77047704730B504460D46012237
:1026A0002946206800F0A2FF0C492068884203D028
:1026B0000B492068884201D1012000E0002028B1A8
:1026C0002068406C40F4004021684864206800683D
:1026D00040F0010021680860002030BD000001408A
:1026E0000004014030B502462D4B9A4257D10020DC
:1026F00053E02C4B53F820305C6A2B4B43F82040BE
:1027000053F82040183B53F82030E11AB1F5864FBA
:102710000CDDC1F50641254B53F820305B1E234CE0
:1027200044F820300123224C235419E011F5864F40
:102730000CDA01F5064100231D4C23541B4B53F8C2
:1027400020305B1C194C44F8203009E0002904DAE1
:1027500049420123164C235402E00023144C235415
:10276000CC00114B303343F82040303B53F820303D
:102770000E4C54F8204004EB440505EB841403EBA5
:102780004423094C303C44F82030074B53F8204098
:10279000183B43F82040431CD8B20628A9DB30BDC3
:1027A0007C12052088000220F41205204CB9052077
:1027B000400102207047704701460022002391F833
:1027C000692091F86A3042EA030070472DE9F04130
:1027D00004462068C569206806682068876805F097
:1027E0000F08B8F1000F0AD105F0200038B106F04B
:1027F000200020B1204601F0DCF9BDE8F081B8F1FD
:10280000000F79D040F201103840002874D005F054
:10281000010048B106F4807030B1012021680862DF
:10282000E06E40F00100E06605F0020048B107F0FC
:10283000010030B1022021680862E06E40F004001F
:10284000E06605F0040048B107F0010030B1042053
:1028500021680862E06E40F00200E06605F00800C2
:1028600060B106F0200010B907F0010030B1082077
:1028700021680862E06E40F00800E066E06E58B340
:1028800005F0200028B106F0200010B1204601F02C
:1028900090F9E06E00F0080020B92068806800F030
:1028A000400018B3204601F064F92068806800F009
:1028B0004000B8B12068806820F04000216888603E
:1028C000606E50B11748616E0865606EFEF764FB7C
:1028D00010B1606E016D88470DE02046FFF76BFF79
:1028E00009E009E02046FFF766FF04E02046FFF715
:1028F00062FF0020E06680E705F0800030B106F05E
:10290000800018B1204601F05FFB76E705F040003B
:1029100030B106F0400018B1204601F03AF96CE7FA
:1029200000BF6AE75B3B000810B504460CB9012004
:1029300010BDA06900B100E000BF94F8690028B99B
:10294000002084F86800204600F02AF8242084F84B
:1029500069002068006820F00100216808602046B6
:1029600001F06CF9012800D1E2E7606A10B120465D
:1029700001F044F82068406820F4904021684860E5
:102980002068806820F02A0021688860206800683C
:1029900040F0010021680860204601F0A4F8C7E774
:1029A00010B586B004462049206888423AD100BF5D
:1029B0001E48006840F001001C4908600846006895
:1029C00000F00100009000BF00BF00BF17481430A6
:1029D000006840F01000154914310860084600688E
:1029E00000F01000009000BF00BF481501900220C9
:1029F000029001200390022004900720059001A975
:102A00000B48FEF7D3FB4FF48060019001A9084802
:102A1000FEF7CCFB2520FEF70CFD032211462520F6
:102A2000FEF714FD06B010BD001001403038024022
:102A30000000024010B5034693F86A0020285BD1DD
:102A400001B10AB9012010BD00BF93F86800012848
:102A500001D10220F7E7012083F8680000BF596523
:102A6000A3F85820A3F85A2000BF9868B0F5805FFB
:102A70000AD1186920B940F2FF10A3F85C001CE0ED
:102A8000FF20A3F85C0018E0986848B9186918B9E5
:102A9000FF20A3F85C0010E07F20A3F85C000CE0AE
:102AA0009868B0F1805F08D1186918B97F20A3F841
:102AB0005C0002E03F20A3F85C0000BF0020D86665
:102AC000222083F86A0000BF002083F8680000BF5E
:102AD0001868006840F480701C682060186880687E
:102AE00040F001001C68A0601868006840F02000F9
:102AF0001C6820600020A6E70220A4E710B5044669
:102B000006492068884207D10548006820B1054978
:102B1000087803490968884710BD0000001001408B
:102B2000000102200A0102202DE9F84304460D4667
:102B300016461F464FF0000994F86900202854D12A
:102B400005B116B90120BDE8F88300BF94F868000C
:102B5000012801D10220F6E7012084F8680000BFB7
:102B600000205034E06121206076FEF72BFC814686
:102B700026806680503C21E0B4F85200401EA4F844
:102B800052004B46002280212046009701F051FA66
:102B900008B10320D7E7A068B0F5805F0AD12069AB
:102BA00040B9A846B8F80000C0F308002168886260
:102BB000AD1C03E015F8010B21688862B4F85200DF
:102BC0000028D9D14B46002240212046009701F031
:102BD00030FA08B10320B6E7202084F8690000BF6E
:102BE000002084F8680000BFADE70220ABE7704723
:102BF0001FB51948194908604FF40030486000219A
:102C000016488160C16001210161002141610121FB
:102C100081610621C1610021016241621049816226
:102C20000021C16201210163FEF768F801240EE072
:102C3000601E0C4951F8200000900194072002907A
:102C40000020039069460548FDF77AFF641C072CB5
:102C5000EEDB00F045F81FBD00220140E810052022
:102C60000100000F0C0102201FB519481949086026
:102C70004FF400304860002116488160C160012196
:102C8000016100214161012181610521C1610021B2
:102C900001624162104981620021C1620121016328
:102CA000FEF72CF801240EE0601E0C4951F82000BC
:102CB0000090019407200290002003906946054887
:102CC000FDF73EFF641C072CEEDB00F039F81FBD5A
:102CD00000200140301105200100000F24010220D6
:102CE00010B51448144908604FF080604860002116
:102CF00011488160C1604FF4806101614900416108
:102D00008161C910C1614902016200214162012152
:102D100081620021C162016300BF084988630846DF
:102D20000549886300BF0846FEF74AF90248FEF7E6
:102D300079F910BD28640240D8110520E81005205B
:102D400010B514481449086000204860002112485A
:102D50008160C1604FF4806101614900416181611E
:102D6000C910C161490201620021416201218162F1
:102D70000021C162016300BF084988630846064913
:102D8000886300BF0846FEF71BF90348FEF74AF9BF
:102D900010BD00001064024078110520301105209C
:102DA000FEB501F079FB1D4A1268821A61F100013B
:102DB000322300209A1A88412ED201F0DBFA054610
:102DC00001F06AFB15490860A878022823D16E46F5
:102DD000002408E0124830F82400001240B20DF838
:102DE0000400601CC4B2062CF4DB002409E00D488A
:102DF00030F82400001241B2A01D0DF80010601C34
:102E0000C4B2052CF3DB2A780B21304601F0FAFA24
:102E10000021A97000BF00BFFEBD000020020220FB
:102E2000FCB70520A4B8052070B5002601F034FBDE
:102E3000184A1268821A61F10001322300209A1A9E
:102E4000884125D201F096FA054601F025FB11498B
:102E50000860E87802281AD1002407E0A868401D1D
:102E6000005D0D4941F82400601CC4B2062CF5DB5E
:102E7000002408E0A868401DA11D405C074941F8F6
:102E80002400601CC4B2052CF4DB0021E97000BFF3
:102E900070BD000024020220FCB70520A4B8052064
:102EA00000BFFEE700BFFEE7704700000248006871
:102EB000C0F30220704700000CED00E010B50028C0
:102EC00007DA0A07140E054A00F00F031B1FD4543B
:102ED00003E00A07130E024A135410BD18ED00E078
:102EE00000E400E07047000000205CE02F4931F86A
:102EF000101009B200EB80022D4B23F8121000EBEA
:102F000080011A4632F9111000EB800203EB4202F5
:102F1000B2F90220114400EB800203EB4202B2F945
:102F20000420114400EB800203EB4202B2F90620B8
:102F30001144891009B200EB800203EB42021181B7
:102F400000EB80011A4602EB4101898800EB800208
:102F500003EB4202D18000EB80011A4602EB4101F3
:102F6000498800EB800203EB4202918000EB800174
:102F70001A4632F8111000EB800203EB4202518036
:102F800000EB80011A4602EB4101B1F90810B1F5DE
:102F90007A6F06DD4FF47A6100EB800203EB4202A8
:102FA0001181411CC8B20628A0DB7047800F0520A4
:102FB000A8B9052010B54B6A33B1B2F1406F03D008
:102FC0008B6A5B1E046823618B69002B76D00B6AC9
:102FD000E3B38B680468E361CB69FBB1D1E90B34DF
:102FE00023434C6B23434C6A23438C8A43EA844338
:102FF0000C6923430C6A2343CC682343CC692343E5
:103000008C6923430C682343134304686361B2F162
:10301000406F02D04B680468A361BEE0D1E90B3475
:1030200023434C6B23434C6A23438C8A43EA8443F7
:103030000C6923430C6A2343CC6923438C692343E3
:103040000C682343134304686361A6E0FFE7CB6980
:10305000EBB1D1E90B3423434C6B23434C6A23433C
:103060008C8A43EA84430C6A2343CC682343CC69AB
:1030700023438C6923430C6823431343046863612F
:10308000B2F1406FC9D04B680468A36185E0D1E913
:103090000B3423434C6B23434C6A23438C8A43EA0F
:1030A00084430C6A2343CC6923438C6923430C6813
:1030B00023431343046863616FE0FFE70B6AC3B304
:1030C0008B680468E361CB69EBB1D1E90B3423432E
:1030D0004C6B23434C6A23438C8A43EA84430C6938
:1030E00023430C6A2343CC682343CC6923438C6974
:1030F0002343134304686361B2F1406F4DD04B68C2
:103100000468A36149E0D1E90B3423434C6B2343AA
:103110004C6A23438C8A43EA84430C6923430C6A38
:103120002343CC6923438C692343134304686361BD
:1031300033E0FFE7CB69DBB1D1E90B3423434C6BC0
:1031400023434C6A23438C8A43EA84430C6A234317
:10315000CC682343CC6923438C692343134304681D
:103160006361B2F1406F18D04B680468A36114E04A
:103170004B6A93B1D1E90B3423434C6B23434C6A24
:1031800023438C8A43EA84430C6A2343CC69234358
:103190008C69234313430468636110BD10B5104864
:1031A000104908600320486004210E488160102106
:1031B000C160080590FAA0F0B0FA80F0401E0949FD
:1031C00008614FF440710748416100218161C1618C
:1031D0000162FEF729FA08B9002010BD0120FCE7C2
:1031E000001000A03812052070B504460D46681E78
:1031F00006490968086141F2883221460348FEF712
:10320000DDFA08B9002070BD0120FCE73812052066
:103210002DE9F0478EB004460D4616461F46DDE9FF
:10322000179ADDF858800094019505960697CDF819
:103230001C80CDF80C90CDF824A000200D900890B3
:103240000B900C9041F2883269460348FEF798F9DA
:103250000EB0BDE8F08700003812052070B50446B6
:103260000D46681E06490968086141F28832214608
:103270000348FEF716FB08B9002070BD0120FCE7EB
:10328000381205202DE9F04104460E4617469846AF
:10329000069D12E0681C80B12DB1FEF793F8A0EBFB
:1032A0000800A84209D9042084F83900E06B40F0F6
:1032B0000100E0630120BDE8F081206880683040B3
:1032C00008B1012000E00020B842E3D10020F2E77D
:1032D00010B50023234C236000BF00BF00BFBFF325
:1032E0004F8F00BF00BF00BF231F1868C0F34E31CF
:1032F00000BFC0F3C90200BF43F6E07303EA411305
:103300004FF0404404EA82742343174C236000BF0B
:1033100000BF131EA2F10102EED10B1EA1F10101AB
:10332000E7D100BF00BF00BFBFF34F8F00BF00BF9A
:1033300000BF0C4B703B1B6843F48033094C703C5E
:10334000236000BF00BF00BFBFF34F8F00BF00BFAF
:1033500000BF00BF00BF00BFBFF36F8F00BF00BF43
:1033600000BF10BD84ED00E060EF00E010B5044642
:1033700009480A4908600846446000218160C1602C
:10338000016181610C214161FFF7CEFA01220449FC
:103390000248FFF74FFB10BD0010014078100520D8
:1033A0000A01022070B504460D464FF47A732A468E
:1033B00021460648FFF7B8FB00BF04480068C06913
:1033C000C0F380100028F8D070BD000078100520F0
:1033D000704700002DE9F04194B005468846164636
:1033E0001F46002400BF2648006840F08050244952
:1033F00008600846006800F08050019000BF00BFE0
:1034000000BF2048006840F440401E49086008465C
:10341000006800F44040019000BF00BF0120079009
:103420000004089002200D9041050E91CDF83C80DB
:1034300010951196129707A8FEF702FC04460CB1EE
:1034400000BFFEE7FEF754F804460CB100BFFEE7EC
:103450000F20029002200390002004904FF4A0500F
:1034600005904FF480500690072102A8FEF782FADB
:1034700004460CB100BFFEE714B0BDE8F0810000C7
:10348000403802400070004010B5FDF7A1FFFEF784
:103490007BFE10BD1448006840F4700012490860BB
:1034A0001248006840F001001049086000200F49F0
:1034B000083108600D4800680D4908400B49086054
:1034C0000C48091D0860081F006820F48020091FAF
:1034D0000860002005490C3108604FF00060024987
:1034E000803908607047000088ED00E00038024035
:1034F000FFFFF6FE1030002410B50248FEF719FF5A
:1035000010BD00007C120520002202682C4B98425E
:103510000ED0B0F1804F0BD02A4B984208D02A4BE6
:10352000984205D0294B984202D0294B984201D1AC
:10353000012300E000231BB122F070024B681A4304
:103540001F4B984220D0B0F1804F1DD01D4B9842A8
:103550001AD01D4B984217D01C4B984214D01C4BCC
:10356000984211D01B4B98420ED01B4B98420BD067
:103570001A4B984208D01A4B984205D0194B9842E2
:1035800002D0194B984201D1012300E000231BB166
:1035900022F44072CB681A4302608B68C3620B68E6
:1035A0008362074B984202D0094B984201D1012314
:1035B00000E000230BB10B690363012343617047F3
:1035C000000001400004004000080040000C0040E2
:1035D0000004014000400140004401400048014017
:1035E00000180040001C00400020004030B50023BF
:1035F000012404FA01F3046A9C430462046A02FA97
:1036000001F52C43046230BD30B5002400220023B4
:10361000056A25F001050562026A43688469144D54
:103620002C4024F003040D682C4322F002028D6824
:103630002A43104DA84202D00F4DA84201D10125C6
:1036400000E000256DB122F00802CD682A4322F087
:10365000040223F4807323F400734D692B438D69B6
:103660002B43436084614D684563026230BD0000B6
:103670008FFFFEFF000001400004014030B5002430
:1036800000220023056A25F010050562026A4368DE
:103690008469164D2C4024F440740D6844EA0524D6
:1036A00022F020028D6842EA0512114DA84202D094
:1036B000104DA84201D1012500E0002585B122F07E
:1036C0008002CD6842EA051222F0400223F48063B2
:1036D00023F400634D6943EA85038D6943EA85035A
:1036E000436084614D688563026230BDFF8FFFFED9
:1036F000000001400004014030B5002400220023F6
:10370000056A25F480750562026A4368C469164D2E
:103710002C4024F003040D682C4322F400728D68C1
:1037200042EA0522114DA84202D0114DA84201D112
:10373000012500E0002585B122F40062CD6842EA4F
:10374000052222F4806223F4805323F400534D6950
:1037500043EA05138D6943EA05134360C4614D686C
:10376000C563026230BD00008FFFFEFF0000014014
:103770000004014030B5002200230024056A25F42E
:1037800080550562036A4468C269104D2A4022F4DC
:1037900040720D6842EA052223F400538D6843EA23
:1037A00005330B4DA84202D00A4DA84201D1012594
:1037B00000E0002525B124F480444D6944EA8514D5
:1037C0004460C2614D680564036230BDFF8FFFFE37
:1037D000000001400004014030B500240022002315
:1037E000056A25F480350562026A4368446D0D4D13
:1037F0002C400D682C4322F400320D8942EA054228
:10380000094DA84202D0094DA84204D123F48033C7
:103810004D6943EA0523436044654D68856502624E
:1038200030BD00008FFFFEFF00000140000401409A
:1038300030B5002400220023056A25F480150562B6
:10384000026A4368446D0D4D2C400D6844EA05241E
:1038500022F400120D8942EA0552094DA84202D015
:10386000084DA84204D123F480234D6943EA8523FF
:10387000436044654D68C565026230BDFF8FFFFE41
:10388000000001400004014010B586B000BF21488F
:10389000006840F002001F4908600846006800F018
:1038A0000200009000BF00BF00BF0846006840F063
:1038B000100008600846006800F01000009000BF8B
:1038C00000BF00BF0846006840F0200008600846BE
:1038D000006800F02000009000BF00BF02200290AE
:1038E000012003900320049000240FE00A4830F8E0
:1038F00014000190094850F824000590084951F837
:10390000240001A9FDF752FC601CC4B2062CEDDBBB
:1039100006B010BD30380240640002207000022062
:103920004C00022010B590B000BF3048006840F451
:1039300080302E4908600846006800F4803000900E
:1039400000BF00BF00BF0846006840F400300860B8
:103950000846006800F40030009000BF00BF00BFC0
:103960000846006840F4802008600846006800F4BB
:103970008020009000BF00BF00BF081F006840F01B
:103980004000091F08600846006800F040000090F1
:1039900000BF00BF012002900021039141F21751A6
:1039A00004910021059160201149086000204860C1
:1039B00002208860002415E00E4850F82400019091
:1039C00001A8FEF74DFE0C4850F82420084901A834
:1039D000FEF78CFD084850F8241001A8FEF75CFEA5
:1039E000601CC4B2062CE7DB10B010BD44380240A6
:1039F000940F0520340002201C00022090F82410AF
:103A000001F0010139B10168496821F40031826A8D
:103A100011430268516090F8241001F0020139B19D
:103A20000168496821F48031C26A1143026851601B
:103A300090F8241001F0040139B10168496821F4BB
:103A40008021026B11430268516090F8241001F04C
:103A5000080139B10168496821F40041426B114302
:103A60000268516090F8241001F0100139B101682A
:103A7000896821F48051826B11430268916090F84B
:103A8000241001F0200139B10168896821F4005146
:103A9000C26B11430268916090F8241001F040015C
:103AA00099B10168496821F48011026C11430268E0
:103AB0005160016CB1F5801F07D10168496821F49C
:103AC000C001426C11430268516090F8241001F06B
:103AD000800139B10168496821F40021826C1143E9
:103AE00002685160704738B5044600250020E06642
:103AF000FDF768FC05462068006800F0080008280B
:103B00000CD16FF07E402B4600224FF40011009044
:103B1000204600F08EFA08B1032038BD2068006806
:103B200000F0040004280CD16FF07E402B460022E8
:103B30004FF480010090204600F07BFA08B103208A
:103B4000EBE7202084F8690084F86A0000BF0020B9
:103B500084F8680000BF00BFDFE770B50546AC6BB6
:103B60000020A4F85A00A4F852002046FEF723FED5
:103B700070BD0168096821F49071026811600168E4
:103B8000896821F0010102689160202180F86A10A3
:103B9000704710B504462068006820F04000216896
:103BA0000860202084F869002046FFF720F80020F4
:103BB00010BD70B50446B4F85C6094F86A00222821
:103BC00033D1A068B0F5805F0AD1206940B9656D36
:103BD0002068406A30402880606D801C606507E086
:103BE0002068406AF1B20840626D511C6165107036
:103BF000B4F85A00401E80B2A4F85A0098B9206860
:103C0000006820F49070216808602068806820F0C7
:103C1000010021688860202084F86A002046FEF7B1
:103C20006DFF002070BD0020FCE72068806940F037
:103C30000800216888610220F4E700002DE9F047C0
:103C40000446002510260027A846A9462169A06839
:103C5000084361690843E16940EA0105206800689A
:103C6000CD4908402843216808602068406820F456
:103C70004050E168084321684860216AA06940EA31
:103C800001052068806820F430602843216888603E
:103C900000BFC2492068884215D1C148006800F0C1
:103CA000030030B1012808D0022804D0032808D12D
:103CB00005E0012606E0022604E0042602E00826CC
:103CC00000E000BFC1E0B7492068884215D1B44880
:103CD000006800F00C0030B1042808D0082804D097
:103CE0000C2808D105E0002606E0022604E00426A0
:103CF00002E0082600E000BFA7E0AB492068884248
:103D000015D1A748006800F0300030B1102808D065
:103D1000202804D0302808D105E0002606E002263D
:103D200004E0042602E0082600E000BF8DE09F4981
:103D30002068884215D19A48006800F0C00030B170
:103D4000402808D0802804D0C02808D105E00026EB
:103D500006E0022604E0042602E0082600E000BF98
:103D600073E093492068884218D18D48006800F4B8
:103D7000407048B1B0F5807F0AD0B0F5007F05D023
:103D8000B0F5407F08D105E0002606E0022604E0F9
:103D9000042602E0082600E000BF56E085492068BE
:103DA000884218D17E48006800F4406048B1B0F500
:103DB000806F0AD0B0F5006F05D0B0F5406F08D124
:103DC00005E0012606E0022604E0042602E00826BB
:103DD00000E000BF39E078492068884218D1704877
:103DE000006800F4405048B1B0F5805F0AD0B0F5EB
:103DF000005F05D0B0F5405F08D105E0002606E081
:103E0000022604E0042602E0082600E000BF1CE0D1
:103E10006A492068884218D16148006800F440402F
:103E200048B1B0F5804F0AD0B0F5004F05D0B0F5DD
:103E3000404F08D105E0002606E0022604E00426F3
:103E400002E0082600E000BF00BF00BFE069B0F557
:103E5000004F52D1042E2BD005DC4EB1012E12D0D2
:103E6000022E3BD11AE0082E2DD0102E36D136E08E
:103E7000FDF760FE4000616800EB5100B0FBF1F01F
:103E80001FFA80F82EE0FDF76BFE4000616800EB42
:103E90005100B0FBF1F01FFA80F823E04849606858
:103EA00001EB50006168B0FBF1F01FFA80F819E0F7
:103EB000FDF76CFE4000616800EB5100B0FBF1F0D3
:103EC0001FFA80F80EE04FF48031606801EB50007B
:103ED0006168B0FBF1F01FFA80F803E000BF4FF01B
:103EE000010900BF00BF4FF6F07008EA0007C8F3F1
:103EF000420007432068C7604AE0042E2CD005DC4E
:103F00004EB1012E12D0022E3DD11AE0082E2ED035
:103F1000102E38D138E0FDF70DFE616800EB51003E
:103F2000B0FBF1F080B22168C86030E0FDF718FE08
:103F3000616800EB5100B0FBF1F080B22168C8600D
:103F400025E02049606801EB50006168B0FBF1F0AA
:103F500080B22168C8601AE0FDF718FE616800EBC6
:103F60005100B0FBF1F080B22168C8600FE04FF45F
:103F70000041606801EB50006168B0FBF1F080B275
:103F80002168C86003E000BF4FF0010900BF00BF17
:103F90004846BDE8F0870000F369FFEF00100140DC
:103FA000903802400044004000480040004C00406F
:103FB000005000400014014000780040007C0040A8
:103FC0000048E8010024F400014691F86900212826
:103FD0002DD1B1F8520068B90868006820F080005F
:103FE0000B6818600868006840F040000B681860B3
:103FF000002070478868B0F5805F0BD1086948B928
:10400000CA6C1088C0F308000B689862C86C801CEA
:10401000C86405E0CB6C581CC86418780B689862BB
:10402000B1F85200401EA1F852000020E1E7022042
:10403000DFE72DE9F04104460D4617469846069EF7
:1040400021E0701CF8B12EB1FDF7BCF9A0EB08001F
:10405000B04218D32068006820F4D070216808604E
:104060002068806820F0010021688860202084F8A2
:10407000690084F86A0000BF002084F8680000BF6F
:104080000320BDE8F0812068C0692840A84201D122
:10409000012000E00020B842D3D00020F1E700006A
:1040A00070B500240F4D1048FEF790FB00BF03E0F1
:1040B000641CAC4200D904E00B48FEF77DFB2028CD
:1040C000F6D100BF002403E0641CAC4200D906E036
:1040D000012206490448FEF7ADFC0028F4D100BFD8
:1040E00070BD0000FFFF0100781005200A010220CA
:1040F00000BFFEE71FB5FFF751F800F037F800F0FA
:1041000057F819490880084600884EF61871884209
:1041100028D1032000F07CF803909DF80C0000F0FB
:10412000010060B900F0AEF80020009001904FF45B
:104130004073024601460290B720FFF769F800F08D
:10414000A1F84FF040700021009103140A46CDE918
:104150000110C020FFF75CF830200390012103A874
:10416000FFF77CF81FBD0000380102203EB5022099
:1041700000F04EF8044604F0020038B900F082F86E
:1041800044F002042146022000F09AF8002000903A
:1041900001904FF480730246014602903820FFF7E9
:1041A00037F80120014908703EBD00003A010220A5
:1041B0001FB51648007870B14FF040704FF40051B1
:1041C00082130314CDE900210290002211469020B1
:1041D000FFF71EF80CE04FF08070C1128213031439
:1041E000CDE900210290002211469020FFF710F83F
:1041F000022103A8FEF7F8FF9DF80D009DF80C10B2
:1042000040EA0124204604B010BD00003A0102201B
:104210007FB50446002003900025012C04D0022C19
:1042200004D0032C06D103E0052505E0352503E085
:10423000152501E0052500BF00BF1148007858B1E1
:104240004FF040700021009103140A46CDE901109F
:104250002846FEF7DDFF0AE04FF080700021009154
:1042600003140A46CDE901102846FEF7D1FF0121CB
:1042700003A8FEF7B9FF9DF80C0004B070BD000064
:104280003A0102200EB50D48007858B10020009088
:1042900001904FF440730246014602900620FEF75B
:1042A000B7FF0AE00020009001904FF480730246AF
:1042B000014602900620FEF7ABFF0EBD3A01022038
:1042C00033B583B004460025012C04D0022C04D061
:1042D000032C06D103E0012505E0312503E011257B
:1042E00001E0012500BF00BF0F48007858B14FF032
:1042F00040700021009103140A46CDE901102846C0
:10430000FEF786FF0AE04FF0807000210091031451
:104310000A46CDE901102846FEF77AFF012104A8DC
:10432000FEF79CFF05B030BD3A01022000BF704788
:1043300010B504460420FDF7EBFE0148046010BDF3
:104340000400022010B500F0A7F8094A1268821A8A
:1043500061F100010020D2F10202884107D200F091
:104360009BF803490860FEF7BFFDFCF76BF910BD31
:104370001C020220004870479CB9052010B5FFF7C9
:10438000E1FFFEF70DFDFEF74FFD10BDFCF706F94E
:10439000FDF726F80923022219214FF4D870FFF700
:1043A00019F8D820FFF7C4FF4FF4E130FEF7DEFF25
:1043B000FFF7B8FAFFF768FAFCF7C8FAFCF742FA19
:1043C000FCF78AFBFCF736FBFFF794FEFEF710FCC8
:1043D000FEF74AFCFCF71EF9062206490648FCF7E0
:1043E00037FD052205490648FCF732FD01E0FFF7DD
:1043F000C5FFFCE7740F0520E8100520800F05209D
:10440000301105202DE9F0419AB007460E4690463E
:104410000024AA222146641C01A8425401222146FC
:10442000641C42542146641C00F801802146641C2F
:104430004654002507E07A5D2046611CCCB201A9F4
:104440000A54681CC5B2B542F5DB002508E001A896
:10445000405D1049097848400E490870681CC5B293
:10446000A542F4DB0B4802782046611CCCB201A9BE
:104470000A540D222046611CCCB201A90A54002026
:1044800004490870214601A8FEF78CFF1AB0BDE868
:10449000F08100006101022001480068002170479E
:1044A000080002204FF04070E1EE100A7047000053
:1044B00000000000000001020304060708090000D4
:1044C000000001020304000610160006101600008A
:1044D000F04400080000022034020000340200080A
:1044E000CC4500083402022044BE030090020008BC
:1044F00011A324F42514024001130404120812101D
:104500005220F20439103C400140041A44041A4875
:1045100004121849044B100204194839044A0404CF
:104520001A201B12401A803811338003A9045A093B
:104530000421194829221A04041A08042A0C0C1907
:10454000146954115950290829045A0C0469105A45
:10455000080412023B082041197019C51A011129DB
:104560000C19D839049A02042980C169145A089494
:10457000320E320F320A320B320C5A0D18032E183B
:10458000EF2BAA524C2902120A2D0250AF0D101126
:104590006A40105AE0102912A9202902C9204902B4
:1045A0001AB810494E49101AB7101A0BA429121A3A
:1045B00006C42AFD30395E492229205A08801A0F84
:0C45C000503AA2208902FAF810011C00F9
:04000005080001F9F5
:00000001FF
